:100000000C94E3000C9400010C9400010C9400018A
:100010000C9400010C9400010C9400010C9400015C
:100020000C9400010C9400010C9400010C9400014C
:100030000C9427010C9400010C9400010C94020113
:100040000C9400010C9400010C9400010C9400012C
:100050000C9400010C9400010C9400010C9400011C
:100060000C9400010C9400010C9400010C9400010C
:100070000C9400010C9400010C9400010C940001FC
:100080000C9400010C9400010C9400010C940001EC
:100090000C9400010C9400010C9400010C940001DC
:1000A0000C9400010C9400010C9400010C940001CC
:1000B0000C9400010C9400010C9400010C940001BC
:1000C0000C9400010C9400010C94000100407A1083
:1000D000F35A00A0724E18090010A5D4E80000E8F9
:1000E0007648170000E40B54020000CA9A3B000057
:1000F00000E1F505000080969800000040420F00E6
:100100000000A08601000000102700000000E803A6
:10011000000000006400000000000A000000000071
:100120000100000000002C76D888DC674F0823DF30
:10013000C1DFAE59E1B1B796E5E3E453C63AE65103
:10014000997696E8E6C28426EB898C9B62ED407C2A
:100150006FFCEFBC9C9F40F2BAA56FA5F490055AC6
:100160002AF75C936B6CF9676DC11BFCE0E40D47EB
:10017000FEF520E6B500D0ED902E0300943577050E
:100180000080841E080000204E0A000000C80C33C6
:100190003333330F986E12831141EF8D2114893B55
:1001A000E65516CFFEE6DB18D1844B381BF77C1DD5
:1001B000901DA4BBE424203284725E228100C9F128
:1001C00024ECA1E53D2711241FBECFEFD8E0DEBF10
:1001D000CDBF11E0A0E0B1E0E4E0FFE002C0059097
:1001E0000D92A030B107D9F721E0A0E0B1E001C045
:1001F0001D92A132B207E1F70E940D020C94800714
:100200000C9400001F920F920FB60F9211248F933F
:100210009F93AF93BF938091000190910101A091B2
:100220000201B09103010196A11DB11D809300014F
:1002300090930101A0930201B0930301BF91AF918C
:100240009F918F910F900FBE0F901F9018951F9246
:100250000F920FB60F9211248F929F92AF92BF927E
:10026000CF92DF92EF92FF920F931F932F933F93C2
:100270004F935F936F937F938F939F93AF93BF93AE
:10028000CF93DF93EF93FF93109285001092840039
:1002900060918600C091040111E01C0F10930401CD
:1002A000C0900001D0900101E0900201F0900301A4
:1002B00080918700D0E0CC0FDD1FCC0FDD1FC75F22
:1002C000DE4F70E09B01382BB9016E5B7F4F072E2C
:1002D000000C880B990B0E94FE0320E030E040E800
:1002E0005DE30E948A044B015C01C701B6012CE06A
:1002F000660F771F881F991F2A95D1F70E94FC036C
:100300009B01AC01C501B4010E941E03688379837F
:100310008A839B83109200011092010110920201C6
:1003200010920301163009F05BC0F89420E030E031
:10033000A90160910D0170910E0180910F019091C2
:1003400010010E941E032091110130911201409171
:100350001301509114010E941E0320911501309148
:10036000160140911701509118010E941E0320911F
:10037000190130911A0140911B0150911C010E94FA
:100380001E0320911D0130911E0140911F015091CB
:1003900020010E941E0320E030E040EA50E40E9469
:1003A0008A039B01AC0160E070E080E89FE30E945B
:1003B0008A03AB01BC014093050150930601609391
:1003C00007017093080188E0E82E08E022E180E050
:1003D0000E94C1026DE080E00E9489021092040137
:1003E000FF91EF91DF91CF91BF91AF919F918F914D
:1003F0007F916F915F914F913F912F911F910F913D
:10040000FF90EF90DF90CF90BF90AF909F908F9034
:100410000F900FBE0F901F901895789467E670E0CC
:1004200080E00E94370281E00E941702FFCF8330F4
:10043000B1F0843061F0813011F081E0089581ECF9
:100440008093810081E280936F0080E0089581ECC9
:100450008093A10081E28093720080E0089581EC96
:100460008093910081E28093710080E00895CF93A2
:10047000DF9300D0CDB7DEB77A8369838130A1F1F5
:10048000F0F0823039F081E090E00F900F90DF9132
:10049000CF91089589819A819093D50089819A811D
:1004A0008093D40088E18093D10086E28093D200CB
:1004B00080E090E00F900F90DF91CF9108958981B7
:1004C0009A819093C50089819A818093C40088E1C4
:1004D0008093C10086E28093C20080E090E00F909C
:1004E0000F90DF91CF91089589819A819093CD00EB
:1004F00089819A818093CC0088E18093C90086E24B
:100500008093CA0080E090E00F900F90DF91CF9130
:100510000895CF93DF931F92CDB7DEB76983813003
:1005200081F0E0F0823039F58091D00085FFFCCF7A
:1005300089818093D60080E090E00F90DF91CF9189
:1005400008958091C80085FFFCCF89818093CE00FB
:1005500080E090E00F90DF91CF9108958091C000EE
:1005600085FFFCCF89818093C60080E090E00F90EA
:10057000DF91CF91089581E090E00F90DF91CF91CE
:100580000895AF92BF92CF92DF92EF92FF920F93B6
:100590001F93CF93DF93CDB7DEB7F82ECB01BA010F
:1005A000402FCDB6DEB6EDB7FEB7E21BF1090FB6B0
:1005B000F894FEBF0FBEEDBF2DB73EB72F5F3F4F84
:1005C000590189012E2D0E94F704F501919199237B
:1005D00019F131E0F316B9F0F31640F182E0F816A4
:1005E000F1F081E090E00FB6F894DEBE0FBECDBE14
:1005F000DF91CF911F910F91FF90EF90DF90CF90FF
:10060000BF90AF9008958091C80085FFFCCF909374
:10061000CE0091919111DDCF80E090E0E4CF809108
:10062000D00085FFFCCF9093D600D0CF8091C00042
:1006300085FFFCCF9093C600C9CF5058BB27AA278F
:100640000E9435030C9450040E94420438F00E942A
:10065000490420F039F49F3F19F426F40C943F0428
:100660000EF4E095E7FB0C943904E92F0E94610435
:1006700058F3BA17620773078407950720F079F4D7
:10068000A6F50C9483040EF4E0950B2EBA2FA02D42
:100690000B01B90190010C01CA01A0011124FF272F
:1006A000591B99F0593F50F4503E68F11A16F0402A
:1006B000A22F232F342F4427585FF3CF4695379529
:1006C0002795A795F0405395C9F77EF41F16BA0BEE
:1006D000620B730B840BBAF09150A1F0FF0FBB1F9C
:1006E000661F771F881FC2F70EC0BA0F621F731FE5
:1006F000841F48F4879577956795B795F7959E3F42
:1007000008F0B0CF9395880F08F09927EE0F9795D2
:10071000879508950E949E030C9450040E944904FA
:1007200058F00E94420440F029F45F3F29F00C94F5
:10073000390451110C9484040C943F040E94610408
:1007400068F39923B1F3552391F3951B550BBB2700
:10075000AA2762177307840738F09F5F5F4F220F45
:10076000331F441FAA1FA9F335D00E2E3AF0E0E83C
:1007700032D091505040E695001CCAF72BD0FE2F86
:1007800029D0660F771F881FBB1F2617370748071A
:10079000AB07B0E809F0BB0B802DBF01FF279358D2
:1007A0005F4F3AF09E3F510578F00C9439040C9459
:1007B00084045F3FE4F3983ED4F38695779567957C
:1007C000B795F7959F5FC9F7880F911D9695879507
:1007D00097F90895E1E0660F771F881FBB1F621726
:1007E00073078407BA0720F0621B730B840BBA0BE4
:1007F000EE1F88F7E0950895E89409C097FB3EF452
:1008000090958095709561957F4F8F4F9F4F99235D
:10081000A9F0F92F96E9BB279395F69587957795DB
:100820006795B795F111F8CFFAF4BB0F11F460FF9B
:100830001BC06F5F7F4F8F4F9F4F16C0882311F0F3
:1008400096E911C0772321F09EE8872F762F05C007
:10085000662371F096E8862F70E060E02AF09A95A2
:10086000660F771F881FDAF7880F9695879597F997
:10087000089597F99F6780E870E060E008959FEF22
:1008800080EC089500240A94161617061806090627
:10089000089500240A9412161306140605060895F6
:1008A000092E0394000C11F4882352F0BB0F40F47E
:1008B000BF2B11F460FF04C06F5F7F4F8F4F9F4FBE
:1008C000089557FD9058440F551F59F05F3F71F040
:1008D0004795880F97FB991F61F09F3F79F08795A7
:1008E0000895121613061406551FF2CF4695F1DF30
:1008F00008C0161617061806991FF1CF86957105C0
:10090000610508940895E894BB2766277727CB01F3
:1009100097F908950E949D040C9450040E9442048B
:1009200038F00E94490420F0952311F00C9439040A
:100930000C943F0411240C9484040E94610470F30D
:10094000959FC1F3950F50E0551F629FF001729F74
:10095000BB27F00DB11D639FAA27F00DB11DAA1F83
:10096000649F6627B00DA11D661F829F2227B00DD0
:10097000A11D621F739FB00DA11D621F839FA00D5B
:10098000611D221F749F3327A00D611D231F849FAB
:10099000600D211D822F762F6A2F11249F57504002
:1009A0009AF0F1F088234AF0EE0FFF1FBB1F661F7D
:1009B000771F881F91505040A9F79E3F510580F046
:1009C0000C9439040C9484045F3FE4F3983ED4F310
:1009D000869577956795B795F795E7959F5FC1F7EA
:1009E000FE2B880F911D9695879597F90895EF92A4
:1009F0000F931F93CF93DF93E80147FD02C034E0CC
:100A000001C034E1042E000C550B57FF03C0519573
:100A100041955109E32E022F242FAE010E941705A4
:100A2000CE01DF91CF911F910F91EF900895A9E032
:100A3000B0E0EDE1F5E00C944F076A01122FB02E03
:100A40002BE3201720F0FF24F394F00E02C02CE3D8
:100A5000F22E0F2D27E0AE014F5F5F4F0E9471060F
:100A6000BC014981842F8970813031F0E1FC06C0DE
:100A7000E0FE06C090E205C09DE203C09BE201C01B
:100A800090E05E2D507143FF3CC0911102C083E0A5
:100A900001C084E0811718F4212F281B01C020E039
:100AA00051110BC0F601822F30E2882319F03193E7
:100AB0008150FBCFC20ED11C20E0992329F0D60132
:100AC0009C93F60131966F01C6010396E2FE0AC0BF
:100AD0003EE4D6013C9341E411964C931197129653
:100AE0003C9306C03EE6F601308341E64183328303
:100AF000FC01322F40E2332309F442C041933150CC
:100B0000FACF42FF44C0911102C083E001C084E0EB
:100B1000811718F4212F281B01C020E051110BC0B0
:100B2000F601822F30E2882319F031938150FBCFF8
:100B3000C20ED11C20E0992329F0D6019C93F60126
:100B400031966F01C6010396E2FE0BC039E4D6016F
:100B50003C933EE411963C93119736E412963C93F5
:100B600007C039E6F60130833EE6318336E632834C
:100B7000FC01322F40E2332319F041933150FBCF77
:100B8000FC01E20FF11D10828EEF9FEFA6C021E065
:100B900030E0911102C020E030E0161617061CF478
:100BA000FB01319602C0E1E0F0E02E0F3F1FBB20B9
:100BB00021F0EB2DF0E0319602C0E0E0F0E02E0FE6
:100BC0003F1FE12FF0E02E173F071CF4121B212FCF
:100BD00001C020E08E2D887159F4F601822F30E299
:100BE000882319F031938150FBCFC20ED11C20E035
:100BF000992329F0D6019C93F60131966F0151118A
:100C00000BC0F601822F90E3882319F09193815055
:100C1000FBCFC20ED11C20E00F2D060F9A81342F7E
:100C2000307144FF03C0913309F40150101624F4CD
:100C3000093018F008E001C001E0AB0177FF02C005
:100C400040E050E0FB01E41BF50BA1E0B0E0AC0F8D
:100C5000BD1FEA0FFB1F8EE2A82E4B01801A9108E0
:100C60000B2D10E01195019511094F3FBFEF5B0768
:100C700021F4D601AC9211966D01641775072CF022
:100C80008416950614F4818101C080E34150510916
:100C90003196D60111967D014017510724F0D601F7
:100CA0008C936701E2CF6417750739F4963320F40B
:100CB000953319F4311101C081E3F6018083F70106
:100CC000822F90E2882319F091938150FBCFF70196
:100CD000E20FF11D108280E090E02996ECE00C9488
:100CE0006B07283008F027E03327DA01990F311D10
:100CF00087FD916000966105710539F432602E5FC1
:100D00003D9330E32A95E1F708959F3F30F0803816
:100D10007105610509F03C5F3C5F3D93913008F03F
:100D20008068911DDF93CF931F930F93FF92EF92F3
:100D3000192F987F9695E92F96959695E90FFF279D
:100D4000EA5DFE4F99273327EE24FF24A701E70130
:100D500005900894079428F4360FE71EF81E491FE3
:100D6000511D660F771F881F991F0694A1F70590E4
:100D7000079428F4E70EF81E491F561FC11D770F70
:100D8000881F991F661F0694A1F70590079428F401
:100D9000F80E491F561FC71FD11D880F991F661FC8
:100DA000771F0694A1F70590079420F4490F561F6A
:100DB000C71FD81F990F661F771F881F0694A9F7B2
:100DC00084911095177041F0D695C7955795479522
:100DD000F794E7941A95C1F7ECECF0E0689415905D
:100DE000159135916591959105907FE27395E11884
:100DF000F10A430B560BC90BD009C0F7E10CF11EE9
:100E0000431F561FC91FD01D7EF4703311F48A95FD
:100E1000E6CFE894015030F0080F0AF400270217DB
:100E200008F4202F2395022F7A3328F079E37D935D
:100E30002A95E9F710C07D932A9589F6069497952F
:100E40006795379517951794E118F10A430B560BE0
:100E5000C90BD00998F023957E9173957A3308F0E9
:100E600070E37C932013B8F77E9170617D9330F02E
:100E7000839571E37D9370E32A95E1F71124EF9058
:100E8000FF900F911F91CF91DF91992787FD90954A
:100E900008952F923F924F925F926F927F928F921E
:100EA0009F92AF92BF92CF92DF92EF92FF920F93F9
:100EB0001F93CF93DF93CDB7DEB7CA1BDB0B0FB603
:100EC000F894DEBF0FBECDBF09942A8839884888C0
:100ED0005F846E847D848C849B84AA84B984C88456
:100EE000DF80EE80FD800C811B81AA81B981CE0F4D
:100EF000D11D0FB6F894DEBF0FBECDBFED01089532
:040F0000F894FFCF93
:00000001FF
